:02000000532C7F
:10000800FF00030E83018316A7000A08A8008A01CF
:1000180070088312A1007108A00083160C1C3D28EB
:1000280083120C1C3D280C1083162208093A031D64
:100038002028A201A5142128A20A2108003C03189F
:100048002628A1038312861D382883162108031D3C
:10005800382801308312280203183428A80A3528C2
:10006800A80104308316A1000B3083128F00DC3006
:100078008E0083168C1E5B2883128C1E5B281A0840
:10008800EF008C121F306F05F100710883162006EF
:10009800031D5B28E03083126F05F1007108A03A58
:1000A800031D5B286F08ED00EE01831625148312EB
:1000B8002108F0002008F100831628088A00270E7E
:0800C8008300FF0E7F0E09000A
:0C00D0000000000000000000000008001C
:1000DC00243083120313FC00B530FD00FD0B742893
:0A00EC00FC0B74280000000008005F
:0E00F600533083120313FD00FD0B7F2808001A
:1001040083160313AF1B8928831288138B28831249
:10011400881783162F1B91288312081393288312A0
:1001240008178316AF1A9928831288129B28831202
:10013400881683162F1AA12883120812A328831263
:10014400081683162619A92883120714AB288312CC
:1001540007100715682007118316AF19B4288312F6
:100164008813B6288312881783162F19BC28831284
:100174000813BE28831208178316AF18C4288312E5
:100184008812C6288312881683162F18CC28831247
:100194000812CE288312081683162619D42883122F
:1001A4000714D62883120710071568200711831631
:0C01B400261DDE286E20DF287B200800BE
:1001C0008316031326112E08AF00822083162615EE
:0201D000080025
:1001D20083160313AA01AB01AC01AD010130AC00DF
:1001E2000030AD0080302D06F00080307002031D1B
:1001F200FC281E302C0203180229AC0A0319AD0A8E
:10020200F32883121F151F1D072904291E08F10058
:10021200F00183161E087007F30071080318013EEF
:10022200F4007308AA007408AB007308F1007408A4
:10023200F200F20CF10CF213F20CF10CF213F20CCC
:10024200F10CF2137108AA007208AB007208003CAC
:10025200031D2D297108633C031833296330AA005A
:0A0262000030AB002A08F00008008D
:10026C00831603130711071008128812081388133A
:10027C0083120711071088130813881208126E20B6
:10028C006E206E20881608160715682007116E2040
:10029C000715682007116E200715682007116E20BE
:1002AC0008120715682007116E2007156820071122
:1002BC00881288170715682007116E2088130816F6
:1002CC0007156820071108120715682007116E2002
:1002DC0007156820071108160715682007116E20EE
:1002EC0008120715682007118817081788160816B2
:0E02FC000715682007116E20831626150800CE
:0E030A008316031324088A00230882000800CB
:100318009E29803083160313AA00B129C030AA0091
:10032800B1299430AA00B129D430AA00B12980306B
:10033800AA00B129831603132A08013A03198D2943
:100348002A08023A031992292A08033A0319952917
:100358002A08043A031998299B292B03F0002A0834
:10036800F0077008AA0026157008AF0082208316CF
:0E03780026112C08AF008220831626150800DF
:10038600D529803083160313AA00E829C030AA00B5
:10039600E8299430AA00E829D430AA00E829803058
:1003A600AA00E829831603132A08013A0319C42967
:1003B6002A08023A0319C9292A08033A0319CC293B
:1003C6002A08043A0319CF29D2292B03F0002A0858
:1003D600F0077008AA007008AF0082208316261165
:1003E600AD012D082C07840000080319022A2D08E8
:1003F6002C0784000008AE00E020AD0AF42926157B
:020406000800EC
:100408008316031398169030831298008316871763
:10041800071383128C1E132A1A08F0000D2A0800ED
:10042800831603132A088312A200A3012208093C99
:0E0438000318222A0A30A202A30A1A2A080078
:1004460083160313290883129900831698182C2AF9
:04045600282A080048
:10045A0083120313A501A40183162513A512A6105E
:10046A002610A5132512A51125118312A601A7018D
:0E047A00A801A201A3018316A51025100800F9
:10048800E92070088312A40088184D2A83162513C2
:100498004F2A8316251783128819552A8316A51201
:1004A800572A8316A516831208195D2A8316A610E3
:1004B8005F2A8316A61483120818652A8316261045
:1004C800672A83162614A5132512A5112511831250
:1004D8002708003C0318712AA7031F2B8316A517AA
:1004E8002516251B7D2A83122408323C031C7D2AED
:1004F800832A83120130A6000A30A700842AA601A5
:100508003B2B8316A5152516A51783122708003C33
:10051800031C972A2708003A031D962A8316261CCF
:10052800962A972A9B2A01308312A600A02A8312B2
:100538000230A6000A30A7003B2B8316A5158312AC
:100548002708003A031DAF2A83162618AF2A03305E
:100558008312A600C02A83122708003C031CBD2A68
:100568002708003A031DBC2A8316261CBC2ABD2A6C
:10057800C02A02308312A6003B2B8316A515251529
:10058800A61CCA2A03308312A600CF2A831204307D
:10059800A6000A30A7003B2B8316A515A618DE2A4D
:1005A80083122708003A031DDE2A0530A6000A3008
:1005B800A700E82A83122708003A031DE62A033019
:1005C800A600E82A0430A6003B2B8316A515A5171C
:1005D800A618F22A05308312A600FE2A83122708DD
:1005E800003A031DFC2A0630A6000A30A700FE2A9E
:1005F8000530A6003B2B8316A517A51583122708DF
:10060800003A031D1E2B8316251B102B831224086A
:10061800323C031C102B162B83120130A6000A3023
:10062800A7001E2B2708003C03181D2B0630A60028
:100638001E2BA6013B2B2608003A0319722A26080E
:10064800013A0319852A2608023A0319A12A26081D
:10065800033A0319C12A2608043A0319D02A26089E
:10066800053A0319E92A2608063A0319FF2A8316C8
:100678002519412B83120511432B83120515831667
:10068800A519492B831285114B2B831285158316C7
:10069800251A512B83120512532B831205160800B5
:1006A80085218A110A128000840AA30A0319A40A60
:0806B800F003031D542B0800A0
:1006C00003308316031385003F308600C030870057
:1006D0000F308800831285018601870188018130EF
:1006E0009F008E3083169F00C0308B008C0130300D
:1006F000831290000B308F00DC308E0010140C1031
:1007000083160C144030990018150422831698168D
:1007100083129817181683168C168B173621013002
:0E072000AF0082200C308316AF00822008004C
:10072E00831203132808003A031DF32B013083169E
:10073E00AA000130AB005C30AC00C3210230AA002D
:10074E000130AB004B30AC00C3210230AA000230A6
:10075E00AB00003026180130AC003030AC078C21D5
:10076E000230AA000530AB000030251B0130AC0072
:10077E003030AC078C210230AA000830AB000030BC
:10078E00A6180130AC003030AC078C210230AA0024
:10079E000C30AB000030A51A0130AC003030AC0785
:1007AE008C21831224088316AA0014220230831689
:1007BE00AA000E30AB003030831223078316AC0034
:1007CE008C210230AA000F30AB003030831222078A
:1007DE008316AC008C21522C83160130AA000130F6
:1007EE00AB002930AC00C3210230AA000130AB00AF
:1007FE003A30AC00C3210230AA000230AB00003008
:10080E0025190130AC003030AC078C210230AA0023
:10081E000530AB000030A51B0130AC003030AC070A
:10082E008C210230AA000830AB000030251A0130AE
:10083E00AC003030AC078C210230AA000B30AB007C
:10084E000030A5190130AC003030AC078C210230DD
:10085E00AA000D30AB003030831226078316AC0091
:10086E008C21831227088316AA00142202308316C5
:10087E00AA000F30AB003030831223078316AC0072
:10088E008C210230AA001030AB00303083122207C8
:08089E008316AC008C21080058
:1008A600FC2460232D22442297238316A51C5E2C4C
:1008B600A51044229723251CA42C251083128716E5
:1008C6006D088316A90023228312A5018316261C10
:1008D6006F2C08308312A5078316251F752C04304C
:1008E6008312A5078316A61C7B2C02308312A5074C
:1008F6008316A51E802C8312A50A8316A51D862C99
:1009060010308312A5078316251E8C2C20308312E7
:10091600A5078316A51F922C40308312A5078316C0
:10092600251D982C80308312A5078312250883166F
:10093600A9002322831224088316A90023228312E6
:060946008712582CA52CBD
:1009F800223084004E3083120313F000AB3083168C
:100A0800A3000430A4005423A03084000330F00075
:0E0A1800F9308316A3000430A4005423080014
:0209560000346B
:02095800003469
:02095A00003467
:02095C00003465
:02095E00003463
:02096000003461
:0209620000345F
:1009640047344134203456344534203444344F34ED
:10097400203420345A342034533420345434413411
:0209840000343D
:100986002034583420342034583420342034583419
:1009960020342034583420345834203458345834D1
:0209A60000341B
:1009A80020345834203420345834203420345834F7
:1009B80020342034203458342034583458342034E7
:0209C8000034F9
:1009CA0050344934203453344D34203430343234A2
:1009DA0020342034443452342034543445342034BE
:0209EA000034D7
:0409EC00003400349F
:0209F0000034D1
:0209F2000034CF
:0209F4000034CD
:0209F6000034CB
:02400E000A2F77
:00000001FF
