:04000000E7EF1BF01B
:1000080000C016F001C015F0E1CF17F0E2CF18F0EC
:100018000401AB6B9DA045D09EA043D09D809E90CF
:10002800040E0001905D04E3906B010E916F01D006
:10003800902B01018751000801E2870781A00DD0AC
:100048008751000A0AE10001C751080A02E1C76B9B
:1000580001D0C72B140E0101876F81A20ED08751E2
:10006800000A0BE10001C751000A03E1080EC76F3F
:1000780001D0C707140E0101876F81A40ED08751E4
:10008800000A0BE10001C851000A03E1100EC86F15
:1000980001D0C86B140E0101876FB50ECE6EB30E7A
:1000A800CF6E9DAA20D19EAA1ED101019E9AAECFE5
:1000B800ABF46851000AD8B416D16851030A13E1A9
:1000C8001F0E0401AB15016E0150000192190AE1DF
:1000D800E00E0401AB15016E0150A00A03E1020E07
:1000E8000101686F00D101016851020AD8A4EBD060
:1000F800010E0401AB15016E0150010A0CE1F50E69
:10010800E16E030EE26E00019251E126D8B0E22AB8
:10011800010EE66E0AD00001F50EE16E030EE26EE6
:100128009251E126D8B0E22AE66A020E0401AB1524
:10013800016E0150020A0CE1150EE16E040EE26E2A
:1001480000019251E126D8B0E22A010EE66E0AD0EB
:100158000001150EE16E040EE26E9251E126D8B050
:10016800E22AE66A040E0401AB15016E0150040A86
:100178000CE1B50EE16E030EE26E00019251E1262C
:10018800D8B0E22A010EE66E0AD00001B50EE16E83
:10019800030EE26E9251E126D8B0E22AE66A080E12
:1001A8000401AB15016E0150080A0CE1D50EE16E91
:1001B800030EE26E00019251E126D8B0E22A010E48
:1001C800E66E0AD00001D50EE16E030EE26E925182
:1001D800E126D8B0E22AE66A100E0401AB15016EDA
:1001E8000150100A0CE1950EE16E030EE26E00015B
:1001F8009251E126D8B0E22A010EE66E0AD000013B
:10020800950EE16E030EE26E9251E126D8B0E22A15
:10021800E66A200E0401AB15016E0150200A0CE1BC
:10022800750EE16E030EE26E00019251E126D8B020
:10023800E22A010EE66E0AD00001750EE16E030E89
:10024800E26E9251E126D8B0E22AE66A400E040135
:10025800AB15016E0150400A0CE1550EE16E030E1C
:10026800E26E00019251E126D8B0E22A010EE66E54
:100278000AD00001550EE16E030EE26E9251E1269E
:10028800D8B0E22AE66A800E0401AB15016E01506F
:10029800800A0CE1150EE16E030EE26E0001925128
:1002A800E126D8B0E22A010EE66E0AD00001150E4A
:1002B800E16E030EE26E9251E126D8B0E22AE66AB8
:1002C8000101680710D06851010A0DE1350EE16E91
:1002D800030EE26E00019251E126D8B0E22AABC4C7
:1002E800E6FF0101686B16C000F015C001F017C0E9
:0802F800E1FF18C0E2FF110054
:10030000AAC4C9FFC7B002D00000FCD7C9CF00F013
:020310001200D9
:10031200F250026EF29E0500FF6A0150FE6E00501E
:08032200FD6E02BEF28E120016
:10032A008090400E0401A711006ED5C1E1FFD6C12D
:10033A00E2FF00C0E6FFD3C100F0D4C101F0E4DF60
:10034A00D5C1E1FFD6C1E2FFA8C4E6FFD3C100F0E0
:10035A00D4C101F0D9DFD5C1E1FFD6C1E2FFA9C4FA
:10036A00E6FFD3C100F0D4C101F0CEDF80801200D5
:10037A008090800E0401A411006ED5C1E1FFD6C1A0
:10038A00E2FF00C0E6FFD3C100F0D4C101F0BCDF38
:10039A00D5C1E1FFD6C1E2FFA5C4E6FFD3C100F093
:0A03AA00D4C101F0B1DF8080120021
:1003B400020E0401A76FA4C4A8F4A5C4A9F4B3DF72
:1003C4008090D5C1E1FFD6C1E2FF7A0EE66ED3C1BB
:1003D40000F0D4C101F09BDFD5C1E1FFD6C1E2FF3B
:1003E400A6C4E6FFD3C100F0D4C101F090DF808041
:0203F4001200F5
:1003F6008090D5C1E1FFD6C1E2FFA4C4E6FFD3C118
:1004060000F0D4C101F082DFD5C1E1FFD6C1E2FF21
:10041600E66AD3C100F0D4C101F078DF8080120013
:100426008090A00E0401A411006ED5C1E1FFD6C1D3
:10043600E2FF00C0E6FFD3C100F0D4C101F066DFE1
:10044600D5C1E1FFD6C1E2FFA5C4E6FFD3C100F0E6
:0A045600D4C101F05BDF80801200CA
:100460000401A76BA4C4A8F4A5C4A9F45EDF80901E
:10047000D5C1E1FFD6C1E2FF3A0EE66ED3C100F06E
:10048000D4C101F046DFD5C1E1FFD6C1E2FFE66A83
:0E049000D3C100F0D4C101F03CDF8080120027
:10049E008090D5C1E1FFD6C1E2FF7A0EE66ED3C1E0
:1004AE0000F0D4C101F02EDFD5C1E1FFD6C1E2FFCD
:1004BE00A4C4E6FFD3C100F0D4C101F023DF8080D5
:0204CE0012001A
:1004D000AE0E0401A46F190EA56FA66B6BDFAE0EF6
:1004E00004019625006E190E9721016E00C096F446
:1004F00001C097F4060EA76F00C0A8F401C0A9F4CC
:1005000014DF1F0E0401A46F800EA56F36DF1F0ECF
:100510000401A46F800EA56F86DF02012851050A31
:1005200004E02851070A01E006D01C0E0401A46F64
:100530000A0EA56F78DF1F0E0401A46F080EA56FC9
:100540001CDF02012851050A04E02851070A01E0D6
:1005500080D004019B6B9C6B1C0EA46F4CDF0A0EB9
:10056000001600520AE104019B4B9C2B030E9C5D7C
:1005700002E1E80E9B5D01E2EFD704011C0EA46FBF
:100580003ADF00B208D0030E04019C5D02E1E80EE0
:100590009B5D01E25DD004011F0EA46F080EA56FE4
:1005A00042DF040E04019625A46F000E9721A56F6B
:1005B00057DF00C09AF40401986B100E985D48E272
:1005C0001C0EA46F18DF00A23FD004019AAB3CD0F0
:1005D0001F0EA46F800EA56FD0DE1F0E0401A46F46
:1005E000800EA56F20DF1C0E0401A46F0A0EA56FFC
:1005F0001ADF1F0E0401A46F080EA56FBEDE0401F2
:100600009B6B9C6B1C0EA46FF6DE0A0E001600524C
:100610000AE104019B4B9C2B030E9C5D02E1E80E5A
:100620009B5D01E2EFD704011F0EA46F080EA56FBA
:10063000FADE040E04019625A46F000E9721A56F23
:100640000FDF00C09AF401D003D00401982BB5D776
:1006500007D004011F0EA46FCEDE00A601D0F9D78B
:100660001D0E0401A46FC7DE060E0016005203E043
:100670000401996B03D00401010E996F99C400F035
:02068000120066
:1006820098C404F099C405F096C402F097C403F02C
:100692009AC400F09BC401F0010E04019A5F000E9F
:1006A2009B5B005001100FE004C0E9FF05C0EAFFA8
:1006B20002C0E1FF03C0E2FFEECFE6FF024A032AD7
:1006C200044A052AE5D796C400F097C401F0120047
:1006D2000401A36B010E985F000E995B9C530DE021
:1006E2009951190802E19851AD0807E2A32BAD0E0A
:1006F200985DA16F190E9959A26FA35305E0AD0E33
:100702009D6F190E9E6F04D098C49DF499C49EF4F7
:1007120097519E1902E19D5196190DE196C4A4F4D8
:1007220097C4A5F49CDE00C0A6F49AC4A4F49BC4AA
:10073200A5F43FDE36D0100E0401A76F96C4A8F4CC
:1007420097C4A9F4F1DD120E0401A76FA35305E0CB
:10075200AD0E9F6F190EA06F04D098C49FF499C478
:10076200A0F49FC4A8F4A0C4A9F4DEDD140E040111
:10077200A76F9AC4A8F49BC4A9F4D6DD1F0E040186
:10078200A46F100EA56F4EDE1F0E0401A46F200E83
:10079200A56FF2DD1F0E0401A46F2CDE00AA01D0AA
:1007A200F9D70401A3531AE09651985D006E975150
:1007B2009959016EA151005EA251015A004A012AC3
:1007C20000509A2701509B23010EA15D986F000EE5
:0E07D200A259996F966B976BA36B8FD712008D
:1007E0008090D5C1E1FFD6C1E2FF7A0EE66ED3C19B
:1007F00000F0D4C101F08DDD98C400F099C401F07F
:10080000010E0401985F000E995B0050011013E087
:10081000D5C1E1FFD6C1E2FF96C4E9FF97C4EAFF64
:10082000EECFE6FFD3C100F0D4C101F072DD0401C8
:0A083000964B972BE1D78080120051
:10083A00086A080E0C6E003408360450085ED8B0F8
:0E084A0002D00826D89000360C2EF5D71200EA
:10085800020E0401A76F96C4A8F497C4A9F461DD39
:100868008090D5C1E1FFD6C1E2FF7A0EE66ED3C112
:1008780000F0D4C101F049DD04019A519B1117E041
:10088800D5C1E1FFD6C1E2FF98C4E9FF99C4EAFFE8
:10089800EECFE6FFD3C100F0D4C101F036DD04018C
:1008A800984B992B010E9A5F000E9B5BE5D78080D1
:0208B80012002C
:1008BA0096C4A4F497C4A5F498C4A6F476DD99C4A2
:0608CA00A4F4E8DD1200B9
:1008D0000401985196259A6F995197219B6F010EAB
:1008E0009A5F000E9B5B100EA76F96C4A8F497C486
:1008F000A9F41BDD120E0401A76F9AC4A8F49BC4CF
:10090000A9F413DD1F0E0401A46F300EA56F35DDB1
:100910001F0E0401A46F6FDD00AA01D0F9D71200E9
:100920008090D5C1E1FFD6C1E2FF7A0EE66ED3C159
:1009300000F0D4C101F0EDDCD5C1E1FFD6C1E2FF8A
:1009400097C4E6FFD3C100F0D4C101F0E2DCD5C109
:10095000E1FFD6C1E2FF96C4E6FFD3C100F0D4C1E7
:0809600001F0D7DC80801200D9
:10096800050E0C6E090E0D6E0D2EFED70C2EFCD743
:0209780012006B
:10097A008090D5C1E1FFD6C1E2FF7A0EE66ED3C1FF
:10098A0000F0D4C101F0C0DC8BC400F08CC401F0CB
:10099A00010E04018B5F000E8C5B005001101BE0FE
:1009AA00D5C1E1FFD6C1E2FF88C4F6FF89C4F7FFCB
:1009BA008AC4F8FF0900F5CF00F000C0E6FFD3C1F2
:1009CA0000F0D4C101F0A0DC010E04018827000E5A
:0A09DA0089238A23D9D780801200F8
:1009E400AF0E0401966F190E976F88C498F489C4EA
:1009F40099F4060E9A6F000E9B6F2CDF220E966FF1
:100A0400020E976F060E986F000E996FE7DE000EC8
:100A1400966F080E976F82DF1C0E04019025936F6A
:100A2400000E9121946F000E966F450E976F76DF3E
:100A340093C496F494C497F471DFFEC296F4FFC293
:100A440097F46CDF0201FE4BFF2B0401966B976B4E
:100A540065DF110E0401966F800E976F5FDF04014E
:100A6400966B976B5BDFD70E0401966F010E976F41
:100A7400040E986F000E996FB1DE8AC496F48BC48D
:100A840097F4040E986F000E996FA8DE080E902557
:100A9400936F000E9121946F8CC496F48DC497F4D7
:100AA4003DDF8EC496F48FC497F438DF93C496F474
:100AB40094C497F433DF0401966B976B2FDFBD0E5C
:100AC4000401966F190E976F140E986F000E996FAC
:100AD400FDDE160E0401A46F8CDC00C095F4170E25
:100AE4000401A46F86DC00C098F4C70E0401966F5D
:100AF400190E976F95C499F4DEDE010E0401931567
:100B0400926FD90E9025A46F190E9121A56FA66B33
:100B14004FDCC90E0401966F190E976FD10E986FB2
:100B2400190E996FD90E90259A6F190E91219B6F0A
:100B340092519A27000E9B239C6BC9DDD90E9025F8
:100B4400966F190E9121976F92519627000E972355
:100B5400080E9627000E9723986B110E996FABDE43
:100B640094C4A4F49ADC93C4A4F497DCD10E0401D5
:100B7400966F190E976F0C0E9325986F000E9421A3
:100B8400996F92519827000E9923A0DE160E040146
:100B9400A46F2FDC00C095F4170E0401A46F29DCA8
:100BA40000C098F4D70E0401966F190E976F95C480
:100BB40099F481DE2A0E04019025966F000E91218E
:060BC400976F84DC1200B3
:100BCA0088C496F489C497F4D70E0401986F010E6D
:100BDA00996F040E9A6F000E9B6F4EDD8A6B8A51D5
:100BEA00030821E38A518825026E000E8921036ECB
:100BFA0002C0E9FF03C0EAFFEECF01F0CF0EE96EB3
:100C0A00010EEA6E8A51E926D8B0EA2AFF0EEE18DA
:100C1A00006E0150001202C0E1FF03C0E2FF00C0F3
:080C2A00E6FF8A2BDCD7120063
:100C320088C4DBF00001DA6BDB51090804E20A0E1A
:080C4200DB5FDA2BF9D7120089
:100C4A0088C4E9FF89C4EAFFEE50000A14E0640E82
:100C5A00E16E020EE26E01017E51E126D8B0E22A6F
:100C6A0088C4E9FF89C4EAFFEECFE6FF7E2B0401C0
:080C7A00884B892BE5D712001D
:100C820004018B6B030E8B5D0AE28B518925E16EA9
:100C9200000E8A21E26E200EE66E8B2BF3D78B516B
:100CA2008925E16E000E8A21E26EE66A8B078B517E
:100CB20089258C6F000E8A218D6F0A0E046E88C4FE
:100CC20000F0BADD08C000F0300E00268CC4E1FF4F
:100CD2008DC4E2FF00C0E6FF0A0E046E88C400F075
:100CE200ABDD00C088F40050000A01E102D08B079E
:040CF200DED7120037
:100CF6008090D5C1E1FFD6C1E2FF3A0EE66ED3C1C0
:100D060000F0D4C101F089EC01F0D5C1E1FFD6C1F4
:100D1600E2FFE66AD3C100F0D4C101F089EC01F02C
:040D260080801200B7
:100D2A0004018B51FF0A02E1FF0E8A1907E0A76B43
:100D3A008AC4A8F48BC4A9F495EC01F08090D5C1BB
:100D4A00E1FFD6C1E2FF3A0EE66ED3C100F0D4C18C
:100D5A0001F089EC01F08CC400F08DC401F0010EA1
:100D6A0004018C5F000E8D5B0050011015E0D5C1A7
:100D7A00E1FFD6C1E2FFE66AD3C100F0D4C101F0B7
:100D8A0089EC01F088C4E1FF89C4E2FF00C0E6FFF4
:0C0D9A000401884B892BDFD780801200F9
:100DA6008CC401F08DC402F0010E04018C5F000EAC
:100DB6008D5B000E021802E1000E01181FE088C4C8
:100DC600E9FF89C4EAFF8AC4D9FF8BC4DAFFEE5073
:100DD600DE180FE088C4E9FF89C4EAFF8AC4D9FF98
:100DE6008BC4DAFFDE50EE5C006E016A000E015A1B
:100DF60007D0884B892B8A4B8B2BD2D7006A016A86
:020E06001200D8
:100E08000401836B846B80C4F6FF81C4F7FF82C43E
:100E1800F8FF0900F5CF00F0005214E080C4F6FF97
:100E280081C4F7FF82C4F8FF0900F5CFA4F44FECA2
:100E380002F0010E04018027000E81238223834BD8
:0E0E4800842BE1D783C400F084C401F01200B3
:100E5600CF0E0401966F010E976F80C498F481C47B
:100E660099F4040E9A6F000E9B6F08DCE30E966FE2
:100E7600010E976F82C498F483C499F4040E9A6F96
:100E8600000E9B6F41EC03F0DF0E966F010E976F1D
:100E960084C498F485C499F4040E9A6F000E9B6F6F
:100EA60041EC03F0DB0E886F010E896F8BDE1200BA
:100EB60080C402F081C403F083C400F084C401F04E
:100EC600010E0401835F000E845B0050011009E0EF
:100ED60002C0E1FF03C0E2FF82C4E6FF024A032A22
:0C0EE600EBD780C400F081C401F01200C2
:100EF2000401846B856B01017E6B0401846B856B3D
:100F0200800E8519006E800E005C02E1200E845D69
:100F1200D8B0C8D0440E8425E96E020E8521EA6E4F
:100F2200EE50010AD8A4BBD08A0E886F010E896FD9
:100F32008BDE84C488F4800E896F040E8A6FA0DE73
:100F4200800E886F040E896F7FDEC10E886F010EDE
:100F5200896F7ADED50E8425E96E030E8521EA6E4D
:100F6200EE50010A05E1BC0E886F010E896F6CDE3E
:100F7200B50E8425E96E030E8521EA6EEE50010A54
:100F820005E1B50E886F010E896F5EDE150E8425B0
:100F9200E96E040E8521EA6EEE50010A05E1C40EE7
:100FA200886F010E896F50DEF50E8425E96E030EFF
:100FB2008521EA6EEE50010A05E1AE0E886F010E40
:100FC200896F42DE150E8425E96E030E8521EA6ED5
:100FD200EE50010A05E1970E886F010E896F34DE2B
:100FE200550E8425E96E030E8521EA6EEE50010A44
:100FF20005E1A20E886F010E896F26DE750E84252B
:10100200E96E030E8521EA6EEE50010A05E1A80E93
:10101200886F010E896F18DE950E8425E96E030E26
:101022008521EA6EEE50010A05E1900E886F010EED
:10103200896F0ADE9C0E886F010E896F05DE350E00
:101042008425E96E030E8521EA6EEECF88F4F0DD89
:10105200640EE16E020EE26E01017E51E126D8B00D
:10106200E22A300E0001DA25006E00C0E6FF01011F
:101072007E2B640EE16E020EE26E7E51E126D8B046
:10108200E22A300E0001DB25006E00C0E6FF0101FE
:101092007E2BDC0E0401886F000E896FD5DD844B38
:1010A200852B2ED7640EE16E020EE26E01017E5197
:0A10B200E126D8B0E22AE66A120037
:1010BC000401826B3C0E0101C86F000EC96FCA6F30
:1010CC00CB6F13DE00C080F40050020AD8A419D1F3
:1010DC000401816B0F0E815D04E207DE0401812B9C
:1010EC00F9D7E70E886F010E896FFF0E8A6FFF0E1E
:1010FC008B6F040E8C6F000E8D6F11DE816B080EE2
:10110C00815D04E2F2DD0401812BF9D7816B060EBF
:10111C00815D12E2EADD00C080F4220ED96E020E6F
:10112C00DA6E04018151D926D8B0DA2A0050DE18C3
:10113C0001E011D1812BEBD7816BCE0E815D04E2E6
:10114C00D4DD0401812BF9D7836BCFDD00C080F493
:10115C00B9D0CBDD00C080F40050010A04E1C5DD3C
:10116C0000C082F401D0F7D0C8D0BFDD00C080F43D
:10117C000050040A0FE11E0E0401886F020E896FE5
:10118C00FF0E8A6FFF0E8B6F040E8C6F000E8D6F2F
:10119C00C6DD01D0E0D0B1D0A8DD00C080F4040ED3
:1011AC00005C0FE31A0E0401886F020E896FFF0EAC
:1011BC008A6FFF0E8B6F040E8C6F000E8D6FAFDD80
:1011CC0001D0C9D00401040E805F040180C400F07A
:1011DC008007005202E089DDF8D78FD086DD00C091
:1011EC0080F4040E005C0FE32D0E0401886F020ED8
:1011FC00896FFF0E8A6FFF0E8B6F040E8C6F000EC3
:10120C008D6F8DDD01D0A7D00401040E805F040129
:10121C0080C400F08007005202E067DDF8D76DD083
:10122C0064DD00C080F40050040A0FE1840E040158
:10123C00886F040E896FFF0E8A6FFF0E8B6F040E82
:10124C008C6F000E8D6F6BDD01D085D056D00401F4
:10125C00010E836F52D049DD00C080F40050040AA7
:10126C0023E1C80E0401886F010E896FFF0E8A6F8F
:10127C00FF0E8B6F040E8C6F000E8D6F50DD010115
:10128C00CB51000808E1CA51000805E1C951070813
:10129C0002E1C851080807E2080EC85F070EC95BD7
:1012AC00000ECA5BCB5B01D056D027D01EDD00C030
:1012BC0080F480C400F004018007005202E015DDC8
:1012CC00F8D71BD004018051350AD8B442D78051CD
:1012DC00010AD8B44AD78051030AD8B45DD78051DB
:1012EC00060AD8B47BD78051360A9AE08051FF0A9F
:1012FC00AEE08051330AAFE0D9D704018353D8B4A0
:10130C0024D704018251020A0FE1290E966F020EB6
:10131C00976F840E986F040E996F040E9A6F000EDF
:10132C009B6F41EC03F014D0290E886F020E896F6D
:10133C00840E8A6F040E8B6F040E8C6F000E8D6FF3
:10134C002CDD000E011802E1000E001801E0826B8A
:0A135C0082C400F001D0006A120004
:101366000401806BC80E805D06E2B4EC04F0B4ECB8
:0813760004F0802BF7D71200F0
:10137E008090400E04018011006ED5C1E1FFD6C1F0
:10138E00E2FF00C0E6FFD3C100F0D4C101F089EC4A
:10139E0001F0D5C1E1FFD6C1E2FF81C4E6FFD3C1A2
:0E13AE0000F0D4C101F089EC01F08080120043
:1013BC000401826B836B80C4E9FF81C4EAFFEE52A7
:1013CC000EE080C4E9FF81C4EAFFEECFA4F44FEC39
:1013DC0002F00401804B812B824B832BECD782C40F
:0813EC0000F083C401F01200BF
:0E13F4000000000000000000000000001200D9
:101402002D0E0C6EA30E0D6E0D2EFED70C2EFCD7DC
:0414120000001200C4
:10141600F90E0401836F000E846F020EA76FD90EBA
:10142600A86F190EA96F95EC01F01D0E0401886FC7
:101436003A0E896F000E8A6F0C0E8B6F000E8C6F42
:10144600BDEC04F08051030A0DE181530BE0E70E79
:10145600966F010E976F040E986F000E996FF0EC61
:1014660003F00AD0826B040E825D06E2A46B4FEC99
:1014760002F00401822BF7D7826B0C0E825D06E226
:10148600A46B4FEC02F00401822BF7D7220E966F65
:10149600020E976F060E986F000E996FF0EC03F030
:1014A600826BCA0E825D06E2A46B4FEC02F0040169
:1014B600822BF7D7350E886F3A0E896F000E8A6F2A
:1014C600060E8B6F000E8C6FBDEC04F080C4A4F486
:1014D6004FEC02F004018051030A1AE1815318E12E
:1014E600360EA46F4FEC02F0040E0401A46F4FEC0D
:1014F60002F0290E0401966F020E976F040E986F84
:10150600000E996FF0EC03F0060E8327000E84237D
:101516003B0E886F3A0E896F000E8A6F050E8B6F31
:10152600000E8C6FBDEC04F08051030A23E1815359
:1015360021E1320EA46F4FEC02F0040E0401A46FF9
:101546004FEC02F00401826B040E825D0FE2E70E9F
:10155600E96E010EEA6E8251E926D8B0EA2AEECF8C
:10156600A4F44FEC02F00401822BEED7060E83277B
:10157600000E8423FF0EA46F4FEC02F0620E0401EE
:10158600886F010E896F620E8A6F010E8B6F440E93
:101596008C6F000E8D6F430E8E6F000E8F6F83C49F
:0C15A60090F484C491F4F2EC04F0120004
:0E15B200670E0D6E0D2EFED700000000120019
:1015C000C90E0401966F190E976FCD0E986F190E04
:1015D000996FCD0E9A6F190E9B6F9C6B69EC03F09F
:1015E000C90E966F190E976FD70E986F010E996FEF
:0E15F000040E9A6F000E9B6F2CEC04F012009C
:1015FE000401A46BFBEC01F000C075F4010E0401B4
:10160E00A46FFBEC01F000C076F40401A76B70C46C
:10161E00A8F471C4A9F495EC01F08090D5C1E1FF56
:10162E00D6C1E2FF3A0EE66ED3C100F0D4C101F08E
:10163E0089EC01F00401745318E0D5C1E1FFD6C165
:10164E00E2FFE66AD3C100F0D4C101F089EC01F0EB
:10165E0072C4D9FF73C4DAFF0050DE1801E005D062
:10166E000401724B732B7407E5D704018080A76BBE
:10167E0075C4A8F476C4A9F495EC01F074C400F016
:02168E00120048
:101690001F0E0401A46F010EA56F13EC02F01F0EC4
:1016A0000401A46F020EA56FBDEC01F0140E04013D
:1016B000806F70C481F463DE56DE160E806F72C4D4
:1016C00081F45DDE50DE170E806F71C481F457DE49
:0416D0004ADE1200DC
:1016D400040170BF02D0819E01D0818E70BD02D002
:1016E400819C01D0818C70BB02D0819A01D0818A07
:1016F40070B902D0819801D08188030100B102D071
:10170400828001D08290828473DE8294040170B757
:1017140002D0819E01D0818E70B502D0819C01D00F
:10172400818C70B302D0819A01D0818A70B102D0C9
:10173400819801D08188030100B102D0828001D058
:101744008290828455DE829400A102D058DE01D0BA
:041754002EDF120072
:06175800006A016A1200A4
:10175E00B6D0D70E0401806F010E816F826B040E1E
:10176E00836F000E846F5BEC07F0010E806F816B50
:10177E004BDE69C140F26AC141F26BC142F26CC1EB
:10178E0043F2030E0101766FADD0050E0201402526
:10179E00016E000E4121026E000E4221036E000EFC
:1017AE004321046E01016C51045C08E16B51035C32
:1017BE0005E16A51025C02E16951015C02E2020E2E
:1017CE00766F75DC0050020A04E1040E0101766F9B
:1017DE0001D088D0030E0401806F77C181F414DE2E
:1017EE0069C140F26AC141F26BC142F26CC143F26F
:1017FE00050E0101766F76D05ADC00C070F40050F1
:10180E00060A04E1040E0101766F2FD00401705117
:10181E00050A2BE169C140F26AC141F26BC142F285
:10182E006CC143F2060E0101766FD70E0401966F5E
:10183E00010E976FE70E986F010E996F040E9A6F57
:10184E00000E9B6F41EC03F01E0E806F020E816F37
:10185E001A0E826F020E836F2D0E846F020E856F2D
:10186E002BEC07F00101776B3DD03CD0010E02014D
:10187E004025016E000E4121026E000E4221036EC4
:10188E00000E4321046E045001016C5D08E103500B
:10189E006B5D05E102506A5D02E10150695D0EE388
:1018AE00010EC85F000EC95BCA5BCB5B69C140F21B
:1018BE006AC141F26BC142F26CC143F213D0010115
:1018CE007651020AD8B445D77651030AD8B45DD7FB
:1018DE007651040AD8B47ED77651050A8DE076513A
:0618EE00060AC4E012002E
:1018F40004017151190802E17051AD0804E2AE0E01
:10190400705F190E715BA76B70C4A8F471C4A9F45D
:0619140095EC01F0120049
:10191A007BEC06F07BEC06F07BEC06F000C071F481
:10192A007BEC06F000C070F47BEC06F000C073F4A8
:10193A007BEC06F000C072F47BEC06F000C075F494
:10194A007BEC06F000C074F47BEC06F07BEC06F04E
:10195A007BEC06F07BEC06F072C400F073C401F075
:10196A00010E0401725F000E735B005001100EE05D
:10197A007BEC06F0005201E0FBD77BEC06F07BEC37
:10198A0006F07BEC06F07BEC06F0E6D774C400F0B8
:10199A0075C401F0010E0401745F000E755B0050FE
:1019AA00011048E07BEC06F07BEC06F07BEC06F0DD
:1019BA0000C079F47BEC06F000C078F47BEC06F00A
:1019CA007BEC06F07BEC06F07BEC06F07BEC06F099
:1019DA007BEC06F07BEC06F000C077F47BEC06F0BB
:1019EA0000C076F4000E0401791902E1010E78199B
:1019FA0011E17BEC06F000C0FAF27BEC06F000C0C5
:101A0A00FBF27BEC06F000C0FCF27BEC06F000C0B7
:101A1A00FDF210D076C400F077C401F0010E040183
:101A2A00765F000E775B0050011003E07BEC06F056
:061A3A00F1D7ACD7120049
:101A40001F0E0401A46F010EA56F13EC02F01F0E10
:101A50000401A46F020EA56FBDEC01F0140E040189
:101A6000806F70C481F48BDC120E0401A46F010E30
:101A7000A56FBDEC01F077DC120EA46F010EA56F0F
:101A800013EC02F0180E0401A46FFBEC01F073C418
:101A9000E1FF74C4E2FF00C0E6FF190E0401A46F69
:101AA000FBEC01F071C4E1FF72C4E2FF00C0E6FF8D
:021AB000120022
:101AB200B50E0401966F190E976FBB0E986F190E33
:101AC200996FAF0E9A6F190E9B6F9C6B69EC03F0C6
:101AD200B50E966F190E976F220E986F020E996FC0
:0E1AE200060E9A6F000E9B6F2CEC04F01200A3
:101AF0000B6A0A6A096A00500402F4CF09F0F3CFB6
:101B000008F001500502F4CF0BF0F3CF0AF00050BB
:101B10000502F3500926F4500A22E86A0B2201500C
:101B20000402F3500926F4500A22E86A0B2208C086
:101B300000F009C001F00AC002F00BC003F012006F
:101B400004017A6B7B6B7C6B7D6B000E751902E177
:101B5000500E741903E0006A016A12007C6B7D6B01
:101B6000800E7D19006E800E005C02E10A0E7C5D25
:101B700012E2310E7C257E6F020E7D217F6F7BECA1
:101B800006F07EC4E1FF7FC4E2FF00C0E6FF04016F
:101B90007C4B7D2BE5D7310E7C25E16E020E7D213D
:101BA000E26EE66A310E886F020E896F780E8A6FD8
:101BB000010E8B6F050E8C6F000E8D6FD3EC06F04F
:101BC0000050011003E0006A016A12000201365160
:101BD000730A03E0006A016A12000401000E7B1917
:101BE00002E1000E7A1931E1808679EC07F0FF0EF0
:101BF0000401806F390E816F000E826F04EC07F0D4
:101C000000C07AF401C07BF4290E806F3A0E816F18
:101C1000000E826F04EC07F000507A2701507B23FE
:101C20007F0E806F010E816FDEEC09F000507A2785
:101C300001507B23640E806F020E816FDEEC09F091
:101C400000507A2701507B2380967AC400F07BC431
:041C500001F012008D
:101C54000401806B435303E00D0E446F02D0050E64
:101C6400446F44C481F4BFEC09F0020E0401806F98
:101C7400435303E0310E456F02D0300E456F45C427
:101C840081F4BFEC09F00A0E0401A76FEE0EA86FF1
:101C9400050EA96F95EC01F0040E0401806F435307
:101CA40003E0150E466F02D0120E466F46C481F44F
:101CB400BFEC09F0060E0401806F120E816FBFECB9
:101CC40009F00401435306E1070E806F0C0E816F87
:101CD400BFEC09F00401435306E1090E806F3F0E87
:101CE400816FBFEC09F01F0E0401A46F010EA56FF4
:101CF400BDEC01F01F0E0401A46F020EA56FBDEC34
:101D040001F0040E0401806F22C281F4BFEC09F0DB
:101D1400050E0401806F23C281F4BFEC09F0020EAA
:101D24000401806F24C281F4BFEC09F0030E0401A6
:101D3400806F25C281F4BFEC09F00401806B26C2D8
:101D440081F4BFEC09F0010E0401806F27C281F415
:101D5400BFEC09F0150E0401806F816BBFEC09F034
:101D6400120E0401A46FFBEC01F000C028F2040180
:101D7400706B480E716F040E726F490E736F040E10
:101D8400746F5CDE0401706BFE0E4815716F435373
:101D940003E0010E476F01D0476B4751711349C4EB
:101DA40072F474DC100E706F010E716F726B6EDC66
:101DB4001F0EA46F040EA56FBDEC01F0B3EC09F087
:101DC400EB0E806F010E816F826B2D0E836F000E00
:101DD400846F5BEC07F01F0EA46F010EA56F13EC6C
:101DE40002F01F0E0401A46F020EA56F13EC02F0A3
:021DF4001200DB
:0E1DF6000301009143C470F46ADC0081120006
:101E0400C40E0401A46F190EA56F30EC02F000C0DB
:101E140043F4E3D0D50E0401706F190E716FD70E21
:101E2400726F010E736F040E746FFFEC0AF00050B2
:101E3400000A4AE1C40E0401A46F190EA56F020E34
:101E4400A66FDAEC01F033DECB0E966F190E976FA6
:101E5400CF0E986F190E996FD50E9A6F190E9B6F4E
:101E64009C6B69EC03F0CB0E966F190E976FD70E2F
:101E7400986F010E996F040E9A6F000E9B6F2CECF5
:101E840004F0C50E966F190E976FCB0E986F190E4E
:101E9400996FCF0E9A6F190E9B6F9C6B69EC03F0D0
:101EA400C50E966F190E976F220E986F020E996FDA
:101EB400060E9A6F000E9B6F2CEC04F03C0E966F8E
:101EC400000E976F68EC02F091D00401AF0E706FB2
:101ED400190E716F220E726F020E736F060E746FFD
:101EE400FFEC0AF00050000A77E1CB0E0401706F9A
:101EF400190E716F18C272F419C273F4040E746F60
:101F0400FFEC0AF00050000A67E10F0E006E000EAD
:101F1400016E6DC104F0000E056EE8DDEB0E0024C9
:101F24000401886F010E0120896F090E8827000EB5
:101F34008923C50E8A6F190E8B6F060E8C6F000EE7
:101F44008D6F95EC06F00F0E006E000E016E6DC1E4
:101F540004F0000E056ECADDEB0E0024966F010E30
:101F64000120976F050E9627000E972318C298F448
:101F740019C299F4040E9A6F000E9B6F41EC03F0A2
:101F84000F0E006E000E016E6DC104F0000E056EA2
:101F9400ADDDEB0E0024E16E010E0120E26E010EB8
:101FA400E66E0F0E006E000E016E6DC104F0000EA1
:101FB400056E9CDDEB0E0026010E0122010E0024AD
:101FC400E16E000E0120E26E69C1E6FF6AC1E6FF20
:101FD4006BC1E6FF6CC1E6FF09D004014351010A5D
:0E1FE400D8B418D74351020AD8B46FD71200F0
:101FF20046C4A4F447C4A5F430EC02F000C051F486
:102002007BEC06F000C050F47BEC06F000C04FF40D
:102012007BEC06F000C04EF4000E04014F1902E101
:10202200000E4E1901E188D07BEC06F000C053F49B
:102032007BEC06F000C052F4540E0401886F040ECB
:10204200896FC90E8A6F190E8B6F040E8C6F000E8A
:102052008D6F95EC06F0020EA76F080E4625A86F4D
:10206200000E4721A96F95EC01F00E0E04014325E5
:10207200706F000E4421716F45517027000E71235D
:10208200080E7027000E712334DC000E0401511972
:1020920002E1350E501902E13FDC4ED0000E040180
:1020A2004F1902E1440E4E1903E1AFEC0BF044D09C
:1020B200540E0401706F040E716F50C472F451C457
:1020C20073F44EC474F44FC475F4080E525D766F07
:1020D200000E5359776FCC0E786F010E796FACEC0E
:1020E2000BF000C052F401C053F40050011024E080
:1020F200480E886F040E896FB50E8A6F190E8B6FAA
:10210200060E8C6F000E8D6F95EC06F0480E886FF0
:10211200040E896F540E8A6F040E8B6F4EC48CF4BA
:102122004FC48DF450C48EF451C48FF452C490F451
:0A21320053C491F4F2EC04F0120023
:10213C0047C4A4F448C4A5F430EC02F000C057F432
:10214C007BEC06F000C056F47BEC06F000C055F4B6
:10215C007BEC06F000C054F404015C6B616B010E67
:10216C00626F5F6B606B0C0E4725A46F000E4821ED
:10217C00A56F30EC02F000C05AF4000E04015B6F46
:10218C005A335A9F5A335A9F000E5B6FFC0E5A17E4
:10219C00FF0E5B176B0E886F040E896FC90E8A6F6A
:1021AC00190E8B6F040E8C6F000E8D6F95EC06F074
:1021BC000D0E4725A46F000E4821A56F30EC02F0E0
:1021CC003F0E00140401586F596B000E5917000E86
:1021DC00596F0E0E0101CD5D04015D6F000E010102
:1021EC00CE5904015E6F45515D5F46515E5B5A519D
:1021FC005D5F5B515E5B020E4725A46F000E4821AC
:10220C00A56F30EC02F000C0A6F447C4A4F448C497
:10221C00A5F4DAEC01F0030E04014725A46F000EBF
:10222C004821A56F30EC02F000C0A4F44FEC02F092
:10223C0056C496F457C497F490EC04F0040E0401C1
:10224C004725A46F000E4821A56F30EC02F000C0AA
:10225C0066F47BEC06F000C065F47BEC06F000C085
:10226C0064F47BEC06F000C063F47BEC06F000C079
:10227C006AF47BEC06F000C069F47BEC06F000C05D
:10228C0068F47BEC06F000C067F4000E04015919E9
:10229C0002E1020E58193DE1010E6325006E000E9D
:1022AC006421016E000E6521026E000E6621036E24
:1022BC0000C067F401C068F402C069F403C06AF49A
:1022CC00120E586F000E596F0C0EA46FFBEC01F040
:1022DC0000C063F40D0E0401A46FFBEC01F000C010
:1022EC0064F40401A46BFBEC01F000C065F4010E76
:1022FC000401A46FFBEC01F000C066F404015C2B3C
:10230C00180E5A6F000E5B6F5F6B606B0101606B98
:10231C0070D0000E0401591902E1180E58192FE162
:10232C0063C449F464C44AF465C44BF466C44CF405
:10233C0067C463F468C464F469C465F46AC466F47D
:10234C005D514925006E5E514A21016E000E4B21F4
:10235C00026E000E4C21036E00C067F401C068F4DD
:10236C0002C069F403C06AF4100E586F000E596F66
:10237C005C2B140E5A6F000E5B6F612B3AD0000E63
:10238C00591902E1110E581934E163C44DF464C4B7
:10239C004EF465C44FF466C450F467C463F468C467
:1023AC0064F469C465F46AC466F4010E4D25006ECC
:1023BC00000E4E21016E000E4F21026E000E5021B8
:1023CC00036E00C067F401C068F402C069F403C076
:1023DC006AF4100E586F000E596F5C2B140E5A6F66
:1023EC00000E5B6F5F6B606B0101615302E1602B50
:1023FC00616B04015C53D8B4D4D10401040E47259D
:10240C00966F000E4821976F66C498F465C499F4D2
:10241C005DEC04F064C4A4F44FEC02F063C4A4F4C7
:10242C004FEC02F06AC4A4F44FEC02F069C4A4F4BB
:10243C004FEC02F068C4A4F44FEC02F067C4A4F4AF
:10244C004FEC02F00C0E04014725A46F000E48213E
:10245C00A56F30EC02F00F0E00140401A66F5AC4E5
:10246C0000F000360090003600900050A6130C0EC1
:10247C004725A46F000E4821A56FDAEC01F00D0E74
:10248C0004014725A46F000E4821A56F30EC02F023
:10249C00C00E00140401A66F5851A6130D0E47254B
:1024AC00A46F000E4821A56FDAEC01F0000E0401B8
:1024BC00591902E1120E581923E10E0E4725966F99
:1024CC00000E4821976F050E986FEE0E996F5DEC1C
:1024DC0004F0140E04014725966F000E4821976FE7
:1024EC00020E986F040E996F5DEC04F0050E04015A
:1024FC00A46F4FEC02F0780E0401A46F4FEC02F0C5
:10250C00040145515F255D6F465160215E6F5A5144
:10251C005D275B515E23625304E059EC0DF0E0EC57
:10252C000AF0BF0E966F190E976F5EC498F45DC4D7
:10253C0099F45DEC04F0C70E0401966F190E976FB9
:10254C00986B996B5DEC04F0BD0E0401966F190E3F
:10255C00976F45C498F446C499F468EC04F0160ED1
:10256C000401A46FFBEC01F000C06FF4170E040122
:10257C00A46FFBEC01F000C098F4C70E0401966F39
:10258C00190E976F6FC499F45DEC04F0BD0E040145
:10259C005D25526F190E5E21536F100E4725966FF5
:1025AC00000E4821976F986B996B5DEC04F0010E4F
:1025BC0004015D15516F52C4A4F453C4A5F4A66B69
:1025CC00DAEC01F0C90E0401966F190E976FD10E5B
:1025DC00986F190E996F515152259A6F000E532115
:1025EC009B6F9C6B69EC03F0080E5225966F000EE6
:1025FC005321976F51519627000E9723986B060E17
:10260C00996F5DEC04F00A0E04015225966F000ED2
:10261C005321976F51519627000E97235F515A25DE
:10262C00036E60515B21046E04C000F0016A00C0AF
:10263C0098F403C099F45DEC04F047C496F448C4D4
:10264C0097F404015F515A25986F60515B21996F83
:10265C000C0E9827000E992351519827000E9923A0
:10266C0068EC04F0160E0401A46FFBEC01F000C042
:10267C006FF4170E0401A46FFBEC01F000C098F48A
:10268C00100E04014725966F000E4821976F6FC4FA
:10269C0099F45DEC04F00E0E04015D25966F000EAE
:1026AC005E21976F68EC02F0615351E0100E586F89
:1026BC00000E596F616B626B020EA76F5A51472562
:1026CC00A86F5B514821A96F95EC01F00E0E040127
:1026DC004325706F000E4421716F45517027465190
:1026EC0071235A5170275B5171237AEC0CF0010164
:1026FC00602B6B0E0401706F040E716F56C472F474
:10270C0057C473F454C474F455C475F40E0E01011B
:10271C00CD5D0401766F000E0101CE590401776F77
:10272C004551765F4651775B5A51765F5B51775BCB
:10273C00CC0E786F010E796FA0EC0DF000C05FF439
:10274C0001C060F40101CCB101D0606B56D601011F
:10275C00605327E004015F516325006E60516421D2
:10276C00016E000E6521026E000E6621036E00C024
:10277C0063F401C064F402C065F403C066F4110E86
:10278C00586F000E596F0101606B0401626B140EDF
:10279C005A6F000E5B6F5F6B606B010E0101616F16
:0427AC002CD6120015
:1027B0009292808292908080B3EC09F08082B3EC98
:1027C00009F08092B3EC09F08082B3EC09F08090BC
:1027D000D5C1E1FFD6C1E2FFFF0EE66ED3C100F026
:1027E000D4C101F089EC01F08080B3EC09F0220E35
:1027F000966F020E976F37C498F438C499F4060E9A
:102800009A6F000E9B6F41EC03F0D70E966F010E8E
:10281000976F39C498F43AC499F4040E9A6F000E75
:102820009B6F41EC03F01F0EA46F010EA56F13EC1C
:1028300002F01F0E0401A46F020EA56F13EC02F04C
:10284000080E0401A76FA86BA96B95EC01F00A0EA6
:102850000401A76FAD0EA86F190EA96F95EC01F0DA
:102860000C0E0401A76FAD0EA86F190EA96F95ECA1
:1028700001F00401A76BA86BA96B95EC01F0040EA5
:102880000401A76FAE0EA86F190EA96F95EC01F0A9
:102890001F0E0401A46F010EA56F13EC02F01F0EB2
:1028A0000401A46F020EA56FBDEC01F03BC443F41C
:0628B0002AEC0EF01200FC
:1028B60010D0800E0401376F1AD0C00E376F17D0B4
:1028C600940E376F14D0D40E376F11D0800E376F39
:1028D6000ED004013751010AECE03751020AEDE04F
:1028E6003751030AEDE03751040AEDE0EFD738051A
:1028F600006E3751002600C037F40301008100C086
:1029060070F46AEC0BF0009139C470F46AEC0BF0C9
:04291600008112002A
:10291A00000E0101D36F030ED46FAA0ED56F040EF9
:10292A00D66FFF0E0301096FFF0E0A6FFF0E0B6FC2
:10293A00FF0E0C6F949A04013751040A02E194863F
:10294A0001D094969488C66A3751C6123951C61274
:10295A003851C712395305E03A51000A01E1C78CD0
:0C296A0003D03A5301E0C78CC68A12006B
:10297600FF0E0301116FFF0E126FFF0E136FFF0E96
:10298600146FFF0E0D6FFF0E0E6F000E0F6F000E11
:10299600106FFF0E056FFF0E066F000E076F000E1D
:1029A600086FFF0E016FFF0E026F000E036F000E21
:1029B600046FAC8A900EAB6E948E949C9EAA03D044
:0829C600AECF00F0FBD71200B8
:1029CE00949494909398939A939C939E82948290CD
:1029DE00819E819C819A819801EC0AF001EC0AF0AB
:1029EE0001EC0AF0818A81888284FAEC09F08294E3
:1029FE0001EC0AF08284FAEC09F0829401EC0AF000
:102A0E008284FAEC09F0829401EC0AF081988284B7
:102A1E00FAEC09F0829401EC0AF08284FAEC09F0E7
:102A2E008294819A818E8284FAEC09F0829401EC70
:102A3E000AF0819E81888284FAEC09F08294819852
:102A4E008284FAEC09F0829401EC0AF08284FAECAA
:102A5E0009F0829481888284FAEC09F0829401EC68
:102A6E000AF081988284FAEC09F08294818E818C2E
:102A7E00818A81888284FAEC09F0829401EC0AF052
:062A8E00030100811200AB
:102A940010D0800E0401376F1AD0C00E376F17D0D4
:102AA400940E376F14D0D40E376F11D0800E376F59
:102AB4000ED004013751010AECE03751020AEDE06F
:102AC4003751030AEDE03751040AEDE0EFD738053A
:102AD400006E3751002600C037F400C070F46AEC71
:102AE4000BF0009104013B6B3B513925E96E000E5C
:102AF4003A21EA6EEE520DE03B513925E96E000EA3
:102B04003A21EA6EEECF43F4FBEC0EF004013B2BCA
:082B1400EBD703010081120060
:102B1C000401406B0101CC81CC931F0E0401A46F06
:102B2C00010EA56F13EC02F01F0E0401A46F020E30
:102B3C00A56F13EC02F00401A76B88C1A8F489C13E
:102B4C00A9F495EC01F08090D5C1E1FFD6C1E2FF6C
:102B5C003A0EE66ED3C100F0D4C101F089EC01F05D
:102B6C00D5C1E1FFD6C1E2FFE66AD3C100F0D4C102
:102B7C0001F089EC01F000C088F1D5C1E1FFD6C1AC
:102B8C00E2FFE66AD3C100F0D4C101F089EC01F098
:102B9C0000C089F1D5C1E1FFD6C1E2FFE66AD3C11D
:102BAC0000F0D4C101F089EC01F000C0CDF1D5C129
:102BBC00E1FFD6C1E2FFE66AD3C100F0D4C101F057
:102BCC0089EC01F000C0CEF1D5C1E1FFD6C1E2FF26
:102BDC00E66AD3C100F0D4C101F089EC01F000C069
:102BEC003EF4D5C1E1FFD6C1E2FFE66AD3C100F0E5
:102BFC00D4C101F089EC01F000C03FF48080040ED8
:102C0C000101CD5F000ECE5B8951190802E188519C
:102C1C00AD0810E388B10ED004013FBF0BD0010109
:102C2C00CE51050802E1CD51EE0804E304013EAF9C
:102C3C0001D003D0010E006ED7D10401A46BFBECC4
:102C4C0001F000C03CF4010E0401A46FFBEC01F098
:102C5C0000C03DF43CC496F43DC497F40101CD5141
:102C6C0004013C25986F0101CE5104013D21996F5F
:102C7C00AF0E9A6F190E9B6F010E9C6F69EC03F0EF
:102C8C00BB0EA46F190EA56F30EC02F000C03FF420
:102C9C007BEC06F000C03EF404013F51080A02E14F
:102CAC00060E3E1912E1BD0E706F190E716F6E0E8D
:102CBC00726F010E736F070E746FFFEC0AF0005009
:102CCC00000A02E102EC0FF060D104013F51080A46
:102CDC0002E1000E3E19D8A455D1CD0E706F190E1D
:102CEC00716FDB0E726F010E736F040E746FFFEC5D
:102CFC000AF0005202E10101CC83CD0E0401706F89
:102D0C00190E716F620E726F010E736F040E746F79
:102D1C00FFEC0AF0005202E10101CC83CD0E04015C
:102D2C00706F190E716FD70E726F010E736F040EE8
:102D3C00746FFFEC0AF0005207E00101CCB304D031
:102D4C00020E0401406F1DD10401BD0EA46F190EBB
:102D5C00A56F30EC02F0F00E0014016E0150400A29
:102D6C0004E0030E0401406F0CD10401BD0EA46FEE
:102D7C00190EA56F30EC02F000C03AF4000E0401FD
:102D8C003B6F0F0E3A17000E3B173A373A913B3711
:102D9C003A373A913B37C30EA46F190EA56F30EC3E
:102DAC0002F0BF0E0014016E0150000AD8A4E9D045
:102DBC00C40E0401A46F190EA56F30EC02F0005084
:102DCC00000AD8A4DED0BD0E04013A25386F190EC6
:102DDC003B21396FC60EA46F190EA56F30EC02F0B3
:102DEC0000C037F40050010AD8A48CD038C4A4F425
:102DFC0039C4A5F430EC02F00050080AD8A481D0F4
:102E0C00010E04013825A46F000E3921A56F30EC9A
:102E1C0002F00050000A75E138C4A4F439C4A5F4DA
:102E2C000401A66BDAEC01F059EC0DF0E0EC0AF0C1
:102E3C00C70E966F190E976F986B996B5DEC04F03B
:102E4C00BD0E0401966F190E976F3AC498F43BC4EB
:102E5C0099F468EC04F0160E0401A46FFBEC01F07D
:102E6C0000C041F4170E0401A46FFBEC01F000C08C
:102E7C0098F4C70E0401966F190E976F41C499F41C
:102E8C005DEC04F0020E04013825966F000E39211A
:102E9C00976F986B996B5DEC04F038C496F439C459
:102EAC0097F404013A510101CD5D0401986F3B5137
:102EBC000101CE590401996F0E0E985F000E995BBB
:102ECC0068EC04F0160E0401A46FFBEC01F000C0DA
:102EDC0041F4170E0401A46FFBEC01F000C098F450
:102EEC00020E04013825966F000E3921976F41C4EC
:102EFC0099F45DEC04F0CDC196F4CEC197F468EC76
:102F0C0002F03FD004013751110A0DE13CC443F4E7
:102F1C003DC444F43AC445F438C446F439C447F4C7
:102F2C00F9EC0FF02ED004013751060A2AE1100EED
:102F3C003C25A46F000E3D21A56F30EC02F000C0C3
:102F4C0042F40401416B7BEC06F000500401412576
:102F5C000101CD6F000E040142210101CE6F0E0E56
:102F6C00CD27000ECE233CC443F43DC444F43AC4F4
:102F7C0045F43BC446F438C447F439C448F49EECD9
:102F8C0010F003D0040E0401406F04011E0EA46F58
:102F9C00400EA56FBDEC01F0010E0101885D016EC4
:102FAC00000E8959026E0250190802E10150AD0859
:102FBC000AE20C0E0401A76FAD0EA86F190EA96FD3
:102FCC0095EC01F00FD00C0E0401A76F010E01015E
:102FDC00885D0401A86F000E010189590401A96FD5
:0A2FEC0095EC01F040C400F0120063
:102FF6000001B56B906B01017E6B0001916B926BCA
:103006000101686B0001B56B960EB55D0BE2640EAF
:10301600E16E020EE26EB551E126D8B0E22AE66A0A
:10302600B52BF2D7C76BB56B200EB55D5CE2D50E3E
:10303600E16E030EE26EB551E126D8B0E22AE66AE9
:10304600B50EE16E030EE26EB551E126D8B0E22A66
:10305600E66A150EE16E040EE26EB551E126D8B0B1
:10306600E22AE66AF50EE16E030EE26EB551E1263E
:10307600D8B0E22AE66A150EE16E030EE26EB5518D
:10308600E126D8B0E22AE66A550EE16E030EE26E3C
:10309600B551E126D8B0E22AE66A750EE16E030E56
:1030A600E26EB551E126D8B0E22AE66A950EE16EE7
:1030B600030EE26EB551E126D8B0E22AE66A440E66
:1030C600E16E020EE26EB551E126D8B0E22AE66A5A
:1030D600350EE16E030EE26EB551E126D8B0E22A56
:0830E600E66AB52BA1D7120028
:1030EE009E6A210E9D6EB00ECD6ECD80B50ECE6E4B
:1030FE00B30ECF6E400EF26EF28E926A0F0E936E7C
:10310E00D00E946E806A816A826AC26A0F0EC16E98
:10311E00500EAF6EAC8428DCAC8AAB8EAB8850DC24
:10312E000C0E0401706F6AEC0BF0020E0401376F87
:10313E00386B396B010E3A6F8DEC14F0560E376FFB
:10314E00010E386F5C0E396F010E3A6F010E3B6F38
:10315E00D8EC13F00401376B386B396B010E3A6FF4
:06316E008DEC14F01200CC
:103174000900F5CFE6FF0006FBE10106F9E11200C4
:103184000401356B366B0001C751010A4EE1C85189
:10319400000A0BE1010E0401376F010E386FC90EEE
:1031A400396F000E3A6F74DC0AD0010E0401376FD8
:1031B400010E386FDF0E396F000E3A6F69DC0401BF
:1031C400356B366B800E3619006E800E005C02E1A2
:1031D400100E355D29E20001C85104013525006E49
:1031E400000E3621016EF50E0024E96E030E012057
:1031F400EA6EEE50010A0AE1020E376F35511008EB
:10320400386F310E396F5BEC14F00AD0020E0401F2
:10321400376F35511008386F300E396F5BEC14F08E
:103224000401354B362BCED79DD20001C751020A7B
:103234004EE1C851000A0BE1010E0401376F010E83
:10324400386F230E396F010E3A6F22DC0AD0010E5B
:103254000401376F010E386F340E396F010E3A6F67
:1032640017DC0401356B366B800E3619006E800E48
:10327400005C02E1100E355D29E20001C851040131
:103284003525006E000E3621016E150E0024E96E00
:10329400040E0120EA6EEE50010A0AE1020E376FB5
:1032A40035511008386F310E396F5BEC14F00AD0C9
:1032B400020E0401376F35511008386F300E396F24
:1032C4005BEC14F00401354B362BCED74BD2000106
:1032D400C751030A50E1C851000A0CE1010E040170
:1032E400376F010E386F450E396F010E3A6F4AEC95
:1032F40015F00BD0010E0401376F010E386FF00E7C
:10330400396F000E3A6F4AEC15F00401356B366BD9
:10331400800E3619006E800E005C02E1100E355DE1
:1033240029E20001C85104013525006E000E362142
:10333400016EB50E0024E96E030E0120EA6EEE5014
:10334400010A0AE1020E376F35511008386F310E49
:10335400396F5BEC14F00AD0020E0401376F35515B
:103364001008386F300E396F5BEC14F00401354BE4
:10337400362BCED7F7D10001C751040A50E1C8510A
:10338400000A0CE1010E0401376F010E386F010EC3
:10339400396F010E3A6F4AEC15F00BD0010E04019F
:1033A400376F010E386F120E396F010E3A6F4AEC07
:1033B40015F00401356B366B800E3619006E800EE5
:1033C400005C02E1100E355D29E20001C8510401E0
:1033D4003525006E000E3621016ED50E0024E96EEF
:1033E400030E0120EA6EEE50010A0AE1020E376F65
:1033F40035511008386F310E396F5BEC14F00AD078
:10340400020E0401376F35511008386F300E396FD2
:103414005BEC14F00401354B362BCED7A3D100015D
:10342400C751050A50E1C851000A0CE1010E04011C
:10343400376F010E386FB60E396F000E3A6F4AECD3
:1034440015F00BD0010E0401376F010E386F4C0ECE
:10345400396F000E3A6F4AEC15F00401356B366B88
:10346400800E3619006E800E005C02E1100E355D90
:1034740029E20001C85104013525006E000E3621F1
:10348400016E950E0024E96E030E0120EA6EEE50E3
:10349400010A0AE1020E376F35511008386F310EF8
:1034A400396F5BEC14F00AD0020E0401376F35510A
:1034B4001008386F300E396F5BEC14F00401354B93
:1034C400362BCED74FD10001C751060A50E1C8515F
:1034D400000A0CE1010E0401376F010E386F5D0E16
:1034E400396F000E3A6F4AEC15F00BD0010E04014F
:1034F400376F010E386F6E0E396F000E3A6F4AEC5B
:1035040015F00401356B366B800E3619006E800E93
:10351400005C02E1100E355D29E20001C85104018E
:103524003525006E000E3621016E750E0024E96EFD
:10353400030E0120EA6EEE50010A0AE1020E376F13
:1035440035511008386F310E396F5BEC14F00AD026
:10355400020E0401376F35511008386F300E396F81
:103564005BEC14F00401354B362BCED7FBD00001B5
:10357400C751070A50E1C851000A0CE1010E0401C9
:10358400376F010E386F190E396F000E3A6F4AEC1F
:1035940015F00BD0010E0401376F010E386F2A0E9F
:1035A400396F000E3A6F4AEC15F00401356B366B37
:1035B400800E3619006E800E005C02E1100E355D3F
:1035C40029E20001C85104013525006E000E3621A0
:1035D400016E550E0024E96E030E0120EA6EEE50D2
:1035E400010A0AE1020E376F35511008386F310EA7
:1035F400396F5BEC14F00AD0020E0401376F3551B9
:103604001008386F300E396F5BEC14F00401354B41
:10361400362BCED7A7D00001C751080A50E1C851B4
:10362400000A0CE1010E0401376F010E386F3B0EE6
:10363400396F000E3A6F4AEC15F00BD0010E0401FD
:10364400376F010E386F7F0E396F000E3A6F4AECF8
:1036540015F00401356B366B800E3619006E800E42
:10366400005C02E1100E355D29E20001C85104013D
:103674003525006E000E3621016E150E0024E96E0C
:10368400030E0120EA6EEE50010A0AE1020E376FC2
:1036940035511008386F310E396F5BEC14F00AD0D5
:1036A400020E0401376F35511008386F300E396F30
:1036B4005BEC14F00401354B362BCED753D000010C
:1036C400C751000A4FE1C851000A0CE1010E040180
:1036D400376F010E386F930E396F000E3A6F4AEC54
:1036E40015F00BD0010E0401376F010E386FA40ED4
:1036F400396F000E3A6F4AEC15F00401356B366BE6
:10370400800E3619006E800E005C02E1100E355DED
:1037140029E20001C85104013525006E000E36214E
:10372400016E440E0024E96E020E0120EA6EEE5092
:10373400010A0AE1020E376F35511008386F310E55
:10374400396F5BEC14F00AD0020E0401376F355167
:103754001008386F300E396F5BEC14F00401354BF0
:06376400362BCED7120047
:0C376A0035C4ADFFACB201D0FDD7120099
:103776000401356B1F0EA46F010EA56FBDEC01F0A1
:103786001F0E0401A46F020EA56F13EC02F0190EB2
:103796000401A46FFBEC01F00050000804E28EEC7B
:1037A60015F000C035F41F0E0401A46F010EA56FBD
:1037B60013EC02F01F0E0401A46F020EA56F13ECAA
:0837C60002F035C400F012000E
:1037CE0020EC1DF08DDC10DCD6DCCEDF000191513B
:1037DE00010A35E1916B0101685100080BE2440EBC
:1037EE00E16E020EE26E00019251E126D8B0E22A9D
:1037FE00E66A0BD00001440EE16E020EE26E9251AB
:10380E00E126D8B0E22A010EE66E80941F0E925D7C
:10381E0003E3926B808401D0922B9251A00F04018E
:10382E00356F808A9BDF809A030E0101686F030E4D
:10383E0000019215016E0150000A01E19CDCC5D712
:02384E00FFD7A2
:103A400010EE19F0AF0E006E020E016E500EF66E03
:0E3A5000380EF76E000EF86EBAEC18F0120089
:1038500056454E54202831352D3029202020203740
:013860000067
:1038610056454E54202833312D313629202020371A
:013871000056
:10387200474153202831352D30292020202020385F
:013882000045
:10388300534F554E44202833312D313629202035CE
:013893000034
:10389400444F4F526F70656E202831352D302936D4
:0138A4000023
:1038A500444F4F526F70656E2833312D31362936AE
:0138B5000012
:1038B600474153202833312D313629202020203806
:0138C6000001
:0138C7000000
:0138C80000FF
:0138C90000FE
:1038CA00436F6D6D202831352D302920202020307E
:0138DA0000ED
:1038DB00436F6D6D202833312D3136292020203058
:0138EB0000DC
:0138EC0000DB
:1038ED00534F554E44202831352D30292020203579
:0138FD0000CA
:0138FE0000C9
:0138FF0000C8
:103900004452494C4C202831352D3029202020317B
:0139100000B6
:0139110000B5
:0139120000B4
:033913000A0A009D
:103916004452494C4C202833312D31362920203150
:0139260000A0
:10392700534D4F4B45202833312D31362920203335
:01393700008F
:10393800504952202831352D30292020202020348C
:01394800007E
:10394900504952202833312D313629202020203466
:01395900006D
:10395A004F32202831352D302920202020202032B6
:01396A00005C
:10396B004F32202833312D31362920202020203290
:01397B00004B
:10397C00534D4F4B45202831352D302920202033F5
:01398C00003A
:06398D000014A576193FAD
:04399300C0A80107C0
:01399700002F
:01399800002E
:06399900FFFFFFFFFFFF2E
:01399F000027
:0439A0000000000023
:0139A4000022
:0839A500000108000604000007
:0139AD000019
:0139AE000018
:0639AF00474554202F00E3
:0139B5000011
:0839B60053746172740A0A00E7
:0139BE000008
:0239BF00000006
:0639C100534F42412000BB
:0739C700534F554E44200050
:0539CE004741532000F9
:0639D30054454D503A007E
:0639D90056454E5420008B
:0639DF00444F4F5220008E
:0739E5004452494C4C200044
:0739EC00534D4F4B45200035
:0539F3005049522000C4
:0339F8003A200072
:0439FB004F32200027
:1039FF00485454502F312E3120323030204F4B0A43
:0E3A0F00436F6E74656E742D747970653A00A5
:0C3A1D0001010600122334450000800067
:0C3A2900746578742F68746D6C0A0A00D4
:063A3500638253633501BA
:053A3B00370301030642
:020000040030CA
:0D00010002191EFF0080FF0FC00FE00F402E
:00000001FF
